{
  "contractName": "CourseMarketPlace",
  "abi": [
    {
      "inputs": [],
      "stateMutability": "nonpayable",
      "type": "constructor"
    },
    {
      "inputs": [
        {
          "internalType": "bytes16",
          "name": "courseId",
          "type": "bytes16"
        },
        {
          "internalType": "bytes32",
          "name": "proof",
          "type": "bytes32"
        }
      ],
      "name": "purchaseCourse",
      "outputs": [],
      "stateMutability": "payable",
      "type": "function",
      "payable": true
    },
    {
      "inputs": [
        {
          "internalType": "bytes32",
          "name": "courseHash",
          "type": "bytes32"
        }
      ],
      "name": "repurchaseCourse",
      "outputs": [],
      "stateMutability": "payable",
      "type": "function",
      "payable": true
    },
    {
      "inputs": [
        {
          "internalType": "bytes32",
          "name": "courseHash",
          "type": "bytes32"
        }
      ],
      "name": "activateCourse",
      "outputs": [],
      "stateMutability": "nonpayable",
      "type": "function"
    },
    {
      "inputs": [
        {
          "internalType": "bytes32",
          "name": "courseHash",
          "type": "bytes32"
        }
      ],
      "name": "deactivateCourse",
      "outputs": [],
      "stateMutability": "nonpayable",
      "type": "function"
    },
    {
      "inputs": [
        {
          "internalType": "address",
          "name": "newOwner",
          "type": "address"
        }
      ],
      "name": "transferOwnership",
      "outputs": [],
      "stateMutability": "nonpayable",
      "type": "function"
    },
    {
      "inputs": [],
      "name": "getCourseCount",
      "outputs": [
        {
          "internalType": "uint256",
          "name": "",
          "type": "uint256"
        }
      ],
      "stateMutability": "view",
      "type": "function",
      "constant": true
    },
    {
      "inputs": [
        {
          "internalType": "uint256",
          "name": "index",
          "type": "uint256"
        }
      ],
      "name": "getCourseHashAtIndex",
      "outputs": [
        {
          "internalType": "bytes32",
          "name": "",
          "type": "bytes32"
        }
      ],
      "stateMutability": "view",
      "type": "function",
      "constant": true
    },
    {
      "inputs": [
        {
          "internalType": "bytes32",
          "name": "courseHash",
          "type": "bytes32"
        }
      ],
      "name": "getCourseByHash",
      "outputs": [
        {
          "components": [
            {
              "internalType": "uint256",
              "name": "id",
              "type": "uint256"
            },
            {
              "internalType": "uint256",
              "name": "price",
              "type": "uint256"
            },
            {
              "internalType": "bytes32",
              "name": "proof",
              "type": "bytes32"
            },
            {
              "internalType": "address",
              "name": "owner",
              "type": "address"
            },
            {
              "internalType": "enum CourseMarketPlace.State",
              "name": "state",
              "type": "uint8"
            }
          ],
          "internalType": "struct CourseMarketPlace.Course",
          "name": "",
          "type": "tuple"
        }
      ],
      "stateMutability": "view",
      "type": "function",
      "constant": true
    },
    {
      "inputs": [],
      "name": "getContractOwner",
      "outputs": [
        {
          "internalType": "address",
          "name": "",
          "type": "address"
        }
      ],
      "stateMutability": "view",
      "type": "function",
      "constant": true
    }
  ],
  "bytecode": "0x608060405234801561001057600080fd5b506100203361002560201b60201c565b610069565b80600360006101000a81548173ffffffffffffffffffffffffffffffffffffffff021916908373ffffffffffffffffffffffffffffffffffffffff16021790555050565b61142b806100786000396000f3fe6080604052600436106100865760003560e01c80636d11290b116100595780636d11290b14610138578063935d7e6d1461017557806396cfda061461019e578063d76821cb146101c9578063f2fde38b146101e557610086565b8063392625721461008b578063442890d5146100b45780636136e1eb146100df57806362e4e6ac146100fb575b600080fd5b34801561009757600080fd5b506100b260048036038101906100ad9190610c46565b61020e565b005b3480156100c057600080fd5b506100c961038a565b6040516100d69190610cb4565b60405180910390f35b6100f960048036038101906100f49190610c46565b6103b4565b005b34801561010757600080fd5b50610122600480360381019061011d9190610c46565b61050b565b60405161012f9190610de5565b60405180910390f35b34801561014457600080fd5b5061015f600480360381019061015a9190610e2c565b6105e6565b60405161016c9190610e68565b60405180910390f35b34801561018157600080fd5b5061019c60048036038101906101979190610c46565b610603565b005b3480156101aa57600080fd5b506101b361085e565b6040516101c09190610e92565b60405180910390f35b6101e360048036038101906101de9190610f05565b610868565b005b3480156101f157600080fd5b5061020c60048036038101906102079190610f71565b610a11565b005b61021661038a565b73ffffffffffffffffffffffffffffffffffffffff163373ffffffffffffffffffffffffffffffffffffffff1614610283576040517f08c379a000000000000000000000000000000000000000000000000000000000815260040161027a90610ffb565b60405180910390fd5b61028c81610a92565b6102cb576040517f08c379a00000000000000000000000000000000000000000000000000000000081526004016102c290611067565b60405180910390fd5b60008060008381526020019081526020016000209050600060028111156102f5576102f4610d06565b5b8160030160149054906101000a900460ff16600281111561031957610318610d06565b5b14610359576040517f08c379a0000000000000000000000000000000000000000000000000000000008152600401610350906110d3565b60405180910390fd5b60018160030160146101000a81548160ff0219169083600281111561038157610380610d06565b5b02179055505050565b6000600360009054906101000a900473ffffffffffffffffffffffffffffffffffffffff16905090565b6103bd81610a92565b6103fc576040517f08c379a00000000000000000000000000000000000000000000000000000000081526004016103f39061113f565b60405180910390fd5b61040581610b00565b610444576040517f08c379a000000000000000000000000000000000000000000000000000000000815260040161043b906111ab565b60405180910390fd5b6000806000838152602001908152602001600020905060028081111561046d5761046c610d06565b5b8160030160149054906101000a900460ff16600281111561049157610490610d06565b5b146104d1576040517f08c379a00000000000000000000000000000000000000000000000000000000081526004016104c8906110d3565b60405180910390fd5b60008160030160146101000a81548160ff021916908360028111156104f9576104f8610d06565b5b02179055503481600101819055505050565b610513610bb1565b6000808381526020019081526020016000206040518060a00160405290816000820154815260200160018201548152602001600282015481526020016003820160009054906101000a900473ffffffffffffffffffffffffffffffffffffffff1673ffffffffffffffffffffffffffffffffffffffff1673ffffffffffffffffffffffffffffffffffffffff1681526020016003820160149054906101000a900460ff1660028111156105c9576105c8610d06565b5b60028111156105db576105da610d06565b5b815250509050919050565b600060016000838152602001908152602001600020549050919050565b61060b61038a565b73ffffffffffffffffffffffffffffffffffffffff163373ffffffffffffffffffffffffffffffffffffffff1614610678576040517f08c379a000000000000000000000000000000000000000000000000000000000815260040161066f90610ffb565b60405180910390fd5b61068181610a92565b6106c0576040517f08c379a00000000000000000000000000000000000000000000000000000000081526004016106b790611067565b60405180910390fd5b60008060008381526020019081526020016000209050600060028111156106ea576106e9610d06565b5b8160030160149054906101000a900460ff16600281111561070e5761070d610d06565b5b1461074e576040517f08c379a0000000000000000000000000000000000000000000000000000000008152600401610745906110d3565b60405180910390fd5b60008160030160009054906101000a900473ffffffffffffffffffffffffffffffffffffffff1673ffffffffffffffffffffffffffffffffffffffff16826001015460405161079c906111fc565b60006040518083038185875af1925050503d80600081146107d9576040519150601f19603f3d011682016040523d82523d6000602084013e6107de565b606091505b5050905080610822576040517f08c379a00000000000000000000000000000000000000000000000000000000081526004016108199061125d565b60405180910390fd5b60018260030160146101000a81548160ff0219169083600281111561084a57610849610d06565b5b021790555060008260010181905550505050565b6000600254905090565b6000823360405160200161087d9291906112e6565b60405160208183030381529060405280519060200120905061089e81610b00565b156108de576040517f08c379a00000000000000000000000000000000000000000000000000000000081526004016108d59061135e565b60405180910390fd5b6000600260008154809291906108f3906113ad565b9190505590508160016000838152602001908152602001600020819055506040518060a001604052808281526020013481526020018481526020013373ffffffffffffffffffffffffffffffffffffffff1681526020016000600281111561095e5761095d610d06565b5b81525060008084815260200190815260200160002060008201518160000155602082015181600101556040820151816002015560608201518160030160006101000a81548173ffffffffffffffffffffffffffffffffffffffff021916908373ffffffffffffffffffffffffffffffffffffffff16021790555060808201518160030160146101000a81548160ff02191690836002811115610a0357610a02610d06565b5b021790555090505050505050565b610a1961038a565b73ffffffffffffffffffffffffffffffffffffffff163373ffffffffffffffffffffffffffffffffffffffff1614610a86576040517f08c379a0000000000000000000000000000000000000000000000000000000008152600401610a7d90610ffb565b60405180910390fd5b610a8f81610b6d565b50565b60008073ffffffffffffffffffffffffffffffffffffffff1660008084815260200190815260200160002060030160009054906101000a900473ffffffffffffffffffffffffffffffffffffffff1673ffffffffffffffffffffffffffffffffffffffff1614159050919050565b60003373ffffffffffffffffffffffffffffffffffffffff1660008084815260200190815260200160002060030160009054906101000a900473ffffffffffffffffffffffffffffffffffffffff1673ffffffffffffffffffffffffffffffffffffffff16149050919050565b80600360006101000a81548173ffffffffffffffffffffffffffffffffffffffff021916908373ffffffffffffffffffffffffffffffffffffffff16021790555050565b6040518060a00160405280600081526020016000815260200160008019168152602001600073ffffffffffffffffffffffffffffffffffffffff16815260200160006002811115610c0557610c04610d06565b5b81525090565b600080fd5b6000819050919050565b610c2381610c10565b8114610c2e57600080fd5b50565b600081359050610c4081610c1a565b92915050565b600060208284031215610c5c57610c5b610c0b565b5b6000610c6a84828501610c31565b91505092915050565b600073ffffffffffffffffffffffffffffffffffffffff82169050919050565b6000610c9e82610c73565b9050919050565b610cae81610c93565b82525050565b6000602082019050610cc96000830184610ca5565b92915050565b6000819050919050565b610ce281610ccf565b82525050565b610cf181610c10565b82525050565b610d0081610c93565b82525050565b7f4e487b7100000000000000000000000000000000000000000000000000000000600052602160045260246000fd5b60038110610d4657610d45610d06565b5b50565b6000819050610d5782610d35565b919050565b6000610d6782610d49565b9050919050565b610d7781610d5c565b82525050565b60a082016000820151610d936000850182610cd9565b506020820151610da66020850182610cd9565b506040820151610db96040850182610ce8565b506060820151610dcc6060850182610cf7565b506080820151610ddf6080850182610d6e565b50505050565b600060a082019050610dfa6000830184610d7d565b92915050565b610e0981610ccf565b8114610e1457600080fd5b50565b600081359050610e2681610e00565b92915050565b600060208284031215610e4257610e41610c0b565b5b6000610e5084828501610e17565b91505092915050565b610e6281610c10565b82525050565b6000602082019050610e7d6000830184610e59565b92915050565b610e8c81610ccf565b82525050565b6000602082019050610ea76000830184610e83565b92915050565b60007fffffffffffffffffffffffffffffffff0000000000000000000000000000000082169050919050565b610ee281610ead565b8114610eed57600080fd5b50565b600081359050610eff81610ed9565b92915050565b60008060408385031215610f1c57610f1b610c0b565b5b6000610f2a85828601610ef0565b9250506020610f3b85828601610c31565b9150509250929050565b610f4e81610c93565b8114610f5957600080fd5b50565b600081359050610f6b81610f45565b92915050565b600060208284031215610f8757610f86610c0b565b5b6000610f9584828501610f5c565b91505092915050565b600082825260208201905092915050565b7f6f6e6c79206f776e65722068617320616e206163636573737321000000000000600082015250565b6000610fe5601a83610f9e565b9150610ff082610faf565b602082019050919050565b6000602082019050818103600083015261101481610fd8565b9050919050565b7f436f75727365206973206e6f7420437265617465642100000000000000000000600082015250565b6000611051601683610f9e565b915061105c8261101b565b602082019050919050565b6000602082019050818103600083015261108081611044565b9050919050565b7f436f757273652068617320496e76616c69642053746174650000000000000000600082015250565b60006110bd601883610f9e565b91506110c882611087565b602082019050919050565b600060208201905081810360008301526110ec816110b0565b9050919050565b7f436f75727365204973206e6f7420437265617465642059657421000000000000600082015250565b6000611129601a83610f9e565b9150611134826110f3565b602082019050919050565b600060208201905081810360008301526111588161111c565b9050919050565b7f53656e646572206973206e6f7420636f75727365204f776e6572000000000000600082015250565b6000611195601a83610f9e565b91506111a08261115f565b602082019050919050565b600060208201905081810360008301526111c481611188565b9050919050565b600081905092915050565b50565b60006111e66000836111cb565b91506111f1826111d6565b600082019050919050565b6000611207826111d9565b9150819050919050565b7f5472616e73666572206661696c65642100000000000000000000000000000000600082015250565b6000611247601083610f9e565b915061125282611211565b602082019050919050565b600060208201905081810360008301526112768161123a565b9050919050565b6000819050919050565b61129861129382610ead565b61127d565b82525050565b60008160601b9050919050565b60006112b68261129e565b9050919050565b60006112c8826112ab565b9050919050565b6112e06112db82610c93565b6112bd565b82525050565b60006112f28285611287565b60108201915061130282846112cf565b6014820191508190509392505050565b7f436f757273652068617320616c72656164792061204f776e6572210000000000600082015250565b6000611348601b83610f9e565b915061135382611312565b602082019050919050565b600060208201905081810360008301526113778161133b565b9050919050565b7f4e487b7100000000000000000000000000000000000000000000000000000000600052601160045260246000fd5b60006113b882610ccf565b91507fffffffffffffffffffffffffffffffffffffffffffffffffffffffffffffffff82036113ea576113e961137e565b5b60018201905091905056fea264697066735822122034d8f2cdbea65f80a595dba04e6d013c4c36c1babfb2fe87abd343565390ce7864736f6c634300080f0033",
  "immutableReferences": {},
  "source": "// SPDX-License-Identifier: GPL-3.0\r\npragma solidity >=0.7.0 <0.9.0;\r\n\r\ncontract CourseMarketPlace {\r\n    enum State {\r\n        Purchased,\r\n        Activated,\r\n        Deactivated\r\n    }\r\n\r\n    struct Course {\r\n        uint id;\r\n        uint price;\r\n        bytes32 proof;\r\n        address owner;\r\n        State state;\r\n    }\r\n\r\n    // mapping of courseHash to Course data\r\n    mapping(bytes32 => Course) private ownedCourses;\r\n\r\n    // mapping of courseID to courseHash\r\n    mapping(uint => bytes32) private ownedCourseHash;\r\n\r\n    //number of all courses + id of the course\r\n    uint private totalOwnedCourses;\r\n\r\n    address payable private owner;\r\n\r\n    constructor () {\r\n        setContractOwner(msg.sender);\r\n    }\r\n\r\n    modifier onlyOwner() {\r\n        if (msg.sender != getContractOwner()) {\r\n            revert(\"only owner has an accesss!\");\r\n        }\r\n        _;\r\n    }\r\n\r\n    function purchaseCourse (\r\n        bytes16 courseId,\r\n        bytes32 proof\r\n    )\r\n        external\r\n        payable\r\n    {\r\n        bytes32 courseHash = keccak256(abi.encodePacked(courseId, msg.sender));\r\n\r\n        if (hasCourseOwnership(courseHash)){\r\n            revert(\"Course has already a Owner!\");\r\n        }\r\n\r\n        uint id = totalOwnedCourses++;\r\n        ownedCourseHash[id] = courseHash;\r\n        ownedCourses[courseHash] = Course({\r\n            id : id,\r\n            price : msg.value,\r\n            proof : proof,\r\n            state : State.Purchased,\r\n            owner : msg.sender\r\n        });\r\n    }\r\n\r\n    function repurchaseCourse(bytes32 courseHash)\r\n        external\r\n        payable\r\n    {\r\n        if (!isCourseCreated(courseHash)) {\r\n            revert(\"Course Is not Created Yet!\");\r\n        }\r\n\r\n        if (!hasCourseOwnership(courseHash)) {\r\n            revert(\"Sender is not course Owner\");\r\n        }\r\n\r\n        Course storage course = ownedCourses[courseHash];\r\n\r\n        if (course.state != State.Deactivated) {\r\n            revert(\"Course has Invalid State\");\r\n        }\r\n\r\n        course.state = State.Purchased;\r\n        course.price = msg.value;\r\n\r\n    }\r\n\r\n    function activateCourse(\r\n        bytes32 courseHash\r\n    )\r\n        external\r\n        onlyOwner\r\n    {\r\n        if (!isCourseCreated(courseHash)) {\r\n            revert(\"Course is not Created!\");\r\n        }\r\n\r\n        Course storage course = ownedCourses[courseHash];\r\n\r\n        if ( course.state != State.Purchased ){\r\n            revert(\"Course has Invalid State\");\r\n        }\r\n        course.state = State.Activated;\r\n    }\r\n\r\n        function deactivateCourse(\r\n        bytes32 courseHash\r\n    )\r\n        external\r\n        onlyOwner\r\n    {\r\n        if (!isCourseCreated(courseHash)) {\r\n            revert(\"Course is not Created!\");\r\n        }\r\n\r\n        Course storage course = ownedCourses[courseHash];\r\n\r\n        if ( course.state != State.Purchased ){\r\n            revert(\"Course has Invalid State\");\r\n        }\r\n\r\n        (bool success,) = course.owner.call{ value : course.price}(\"\");\r\n        require(success, \"Transfer failed!\");\r\n\r\n        course.state = State.Activated;\r\n        course.price = 0;\r\n    }\r\n\r\n    function transferOwnership (address newOwner)\r\n        external\r\n        onlyOwner\r\n    {\r\n        setContractOwner(newOwner);\r\n    }\r\n\r\n    function getCourseCount()\r\n        external\r\n        view\r\n        returns (uint)\r\n        {\r\n            return totalOwnedCourses;\r\n        }\r\n\r\n    function getCourseHashAtIndex(uint index) \r\n        external\r\n        view \r\n        returns (bytes32)\r\n        {\r\n            return ownedCourseHash[index];\r\n        }\r\n\r\n    function getCourseByHash(bytes32 courseHash)\r\n        external\r\n        view\r\n        returns (Course memory)\r\n        {\r\n            return ownedCourses[courseHash];\r\n        }\r\n\r\n    function getContractOwner()\r\n        public\r\n        view\r\n        returns (address)\r\n        {\r\n            return owner;\r\n        }\r\n\r\n    function setContractOwner(address newOwner) \r\n        private \r\n        {\r\n            owner = payable(newOwner);\r\n        }\r\n\r\n    function isCourseCreated(bytes32 courseHash)\r\n        private\r\n        view\r\n        returns (bool)\r\n    {\r\n        return ownedCourses[courseHash].owner != 0x0000000000000000000000000000000000000000;\r\n    }\r\n    \r\n    function hasCourseOwnership (bytes32 courseHash)\r\n        private\r\n        view\r\n        returns (bool)\r\n        {\r\n            return ownedCourses[courseHash].owner == msg.sender;\r\n        }\r\n}",
  "sourcePath": "D:\\zaheer Data\\blockchainprojects\\marketPlace\\marketplace-eth\\contracts\\CourseMarketplace.sol",
  "compiler": {
    "name": "solc",
    "version": "0.8.15+commit.e14f2714.Emscripten.clang"
  },
  "schemaVersion": "3.4.8",
  "updatedAt": "2022-07-26T11:42:20.041Z",
  "networkType": "ethereum",
  "devdoc": {
    "kind": "dev",
    "methods": {},
    "version": 1
  },
  "userdoc": {
    "kind": "user",
    "methods": {},
    "version": 1
  }
}