{
  "contractName": "CourseMarketPlace",
  "abi": [
    {
      "inputs": [],
      "stateMutability": "nonpayable",
      "type": "constructor"
    },
    {
      "inputs": [],
      "name": "isStopped",
      "outputs": [
        {
          "internalType": "bool",
          "name": "",
          "type": "bool"
        }
      ],
      "stateMutability": "view",
      "type": "function",
      "constant": true
    },
    {
      "stateMutability": "payable",
      "type": "receive",
      "payable": true
    },
    {
      "inputs": [],
      "name": "emergencyWithdraw",
      "outputs": [],
      "stateMutability": "nonpayable",
      "type": "function"
    },
    {
      "inputs": [],
      "name": "selfDestruct",
      "outputs": [],
      "stateMutability": "nonpayable",
      "type": "function"
    },
    {
      "inputs": [
        {
          "internalType": "uint256",
          "name": "amount",
          "type": "uint256"
        }
      ],
      "name": "withdraw",
      "outputs": [],
      "stateMutability": "nonpayable",
      "type": "function"
    },
    {
      "inputs": [],
      "name": "stopContract",
      "outputs": [],
      "stateMutability": "nonpayable",
      "type": "function"
    },
    {
      "inputs": [],
      "name": "resumeContract",
      "outputs": [],
      "stateMutability": "nonpayable",
      "type": "function"
    },
    {
      "inputs": [
        {
          "internalType": "bytes16",
          "name": "courseId",
          "type": "bytes16"
        },
        {
          "internalType": "bytes32",
          "name": "proof",
          "type": "bytes32"
        }
      ],
      "name": "purchaseCourse",
      "outputs": [],
      "stateMutability": "payable",
      "type": "function",
      "payable": true
    },
    {
      "inputs": [
        {
          "internalType": "bytes32",
          "name": "courseHash",
          "type": "bytes32"
        }
      ],
      "name": "repurchaseCourse",
      "outputs": [],
      "stateMutability": "payable",
      "type": "function",
      "payable": true
    },
    {
      "inputs": [
        {
          "internalType": "bytes32",
          "name": "courseHash",
          "type": "bytes32"
        }
      ],
      "name": "activateCourse",
      "outputs": [],
      "stateMutability": "nonpayable",
      "type": "function"
    },
    {
      "inputs": [
        {
          "internalType": "bytes32",
          "name": "courseHash",
          "type": "bytes32"
        }
      ],
      "name": "deactivateCourse",
      "outputs": [],
      "stateMutability": "nonpayable",
      "type": "function"
    },
    {
      "inputs": [
        {
          "internalType": "address",
          "name": "newOwner",
          "type": "address"
        }
      ],
      "name": "transferOwnership",
      "outputs": [],
      "stateMutability": "nonpayable",
      "type": "function"
    },
    {
      "inputs": [],
      "name": "getCourseCount",
      "outputs": [
        {
          "internalType": "uint256",
          "name": "",
          "type": "uint256"
        }
      ],
      "stateMutability": "view",
      "type": "function",
      "constant": true
    },
    {
      "inputs": [
        {
          "internalType": "uint256",
          "name": "index",
          "type": "uint256"
        }
      ],
      "name": "getCourseHashAtIndex",
      "outputs": [
        {
          "internalType": "bytes32",
          "name": "",
          "type": "bytes32"
        }
      ],
      "stateMutability": "view",
      "type": "function",
      "constant": true
    },
    {
      "inputs": [
        {
          "internalType": "bytes32",
          "name": "courseHash",
          "type": "bytes32"
        }
      ],
      "name": "getCourseByHash",
      "outputs": [
        {
          "components": [
            {
              "internalType": "uint256",
              "name": "id",
              "type": "uint256"
            },
            {
              "internalType": "uint256",
              "name": "price",
              "type": "uint256"
            },
            {
              "internalType": "bytes32",
              "name": "proof",
              "type": "bytes32"
            },
            {
              "internalType": "address",
              "name": "owner",
              "type": "address"
            },
            {
              "internalType": "enum CourseMarketPlace.State",
              "name": "state",
              "type": "uint8"
            }
          ],
          "internalType": "struct CourseMarketPlace.Course",
          "name": "",
          "type": "tuple"
        }
      ],
      "stateMutability": "view",
      "type": "function",
      "constant": true
    },
    {
      "inputs": [],
      "name": "getContractOwner",
      "outputs": [
        {
          "internalType": "address",
          "name": "",
          "type": "address"
        }
      ],
      "stateMutability": "view",
      "type": "function",
      "constant": true
    }
  ],
  "bytecode": "0x608060405260008060006101000a81548160ff02191690831515021790555034801561002a57600080fd5b5061003a3361003f60201b60201c565b610083565b80600460006101000a81548173ffffffffffffffffffffffffffffffffffffffff021916908373ffffffffffffffffffffffffffffffffffffffff16021790555050565b611aef806100926000396000f3fe6080604052600436106100ec5760003560e01c80636d11290b1161008a578063c4bc5da511610059578063c4bc5da5146102b8578063d76821cb146102cf578063db2e21bc146102eb578063f2fde38b14610302576100f3565b80636d11290b14610210578063935d7e6d1461024d57806396cfda06146102765780639cb8a26a146102a1576100f3565b80633f683b6a116100c65780633f683b6a14610161578063442890d51461018c5780636136e1eb146101b757806362e4e6ac146101d3576100f3565b806312253a6c146100f85780632e1a7d4d1461010f5780633926257214610138576100f3565b366100f357005b600080fd5b34801561010457600080fd5b5061010d61032b565b005b34801561011b57600080fd5b5061013660048036038101906101319190611268565b6103bc565b005b34801561014457600080fd5b5061015f600480360381019061015a91906112cb565b610503565b005b34801561016d57600080fd5b50610176610698565b6040516101839190611313565b60405180910390f35b34801561019857600080fd5b506101a16106a9565b6040516101ae919061136f565b60405180910390f35b6101d160048036038101906101cc91906112cb565b6106d3565b005b3480156101df57600080fd5b506101fa60048036038101906101f591906112cb565b610843565b6040516102079190611496565b60405180910390f35b34801561021c57600080fd5b5061023760048036038101906102329190611268565b61091f565b60405161024491906114c0565b60405180910390f35b34801561025957600080fd5b50610274600480360381019061026f91906112cb565b61093c565b005b34801561028257600080fd5b5061028b610bb0565b60405161029891906114ea565b60405180910390f35b3480156102ad57600080fd5b506102b6610bba565b005b3480156102c457600080fd5b506102cd610c81565b005b6102e960048036038101906102e4919061155d565b610d12565b005b3480156102f757600080fd5b50610300610ed4565b005b34801561030e57600080fd5b50610329600480360381019061032491906115c9565b611031565b005b6103336106a9565b73ffffffffffffffffffffffffffffffffffffffff163373ffffffffffffffffffffffffffffffffffffffff16146103a0576040517f08c379a000000000000000000000000000000000000000000000000000000000815260040161039790611653565b60405180910390fd5b60016000806101000a81548160ff021916908315150217905550565b6103c46106a9565b73ffffffffffffffffffffffffffffffffffffffff163373ffffffffffffffffffffffffffffffffffffffff1614610431576040517f08c379a000000000000000000000000000000000000000000000000000000000815260040161042890611653565b60405180910390fd5b6000600460009054906101000a900473ffffffffffffffffffffffffffffffffffffffff1673ffffffffffffffffffffffffffffffffffffffff1682604051610479906116a4565b60006040518083038185875af1925050503d80600081146104b6576040519150601f19603f3d011682016040523d82523d6000602084013e6104bb565b606091505b50509050806104ff576040517f08c379a00000000000000000000000000000000000000000000000000000000081526004016104f690611705565b60405180910390fd5b5050565b60008054906101000a900460ff161561051b57600080fd5b6105236106a9565b73ffffffffffffffffffffffffffffffffffffffff163373ffffffffffffffffffffffffffffffffffffffff1614610590576040517f08c379a000000000000000000000000000000000000000000000000000000000815260040161058790611653565b60405180910390fd5b610599816110b2565b6105d8576040517f08c379a00000000000000000000000000000000000000000000000000000000081526004016105cf90611771565b60405180910390fd5b600060016000838152602001908152602001600020905060006002811115610603576106026113b7565b5b8160030160149054906101000a900460ff166002811115610627576106266113b7565b5b14610667576040517f08c379a000000000000000000000000000000000000000000000000000000000815260040161065e906117dd565b60405180910390fd5b60018160030160146101000a81548160ff0219169083600281111561068f5761068e6113b7565b5b02179055505050565b60008054906101000a900460ff1681565b6000600460009054906101000a900473ffffffffffffffffffffffffffffffffffffffff16905090565b60008054906101000a900460ff16156106eb57600080fd5b6106f4816110b2565b610733576040517f08c379a000000000000000000000000000000000000000000000000000000000815260040161072a90611849565b60405180910390fd5b61073c81611121565b61077b576040517f08c379a0000000000000000000000000000000000000000000000000000000008152600401610772906118b5565b60405180910390fd5b60006001600083815260200190815260200160002090506002808111156107a5576107a46113b7565b5b8160030160149054906101000a900460ff1660028111156107c9576107c86113b7565b5b14610809576040517f08c379a0000000000000000000000000000000000000000000000000000000008152600401610800906117dd565b60405180910390fd5b60008160030160146101000a81548160ff02191690836002811115610831576108306113b7565b5b02179055503481600101819055505050565b61084b6111d3565b600160008381526020019081526020016000206040518060a00160405290816000820154815260200160018201548152602001600282015481526020016003820160009054906101000a900473ffffffffffffffffffffffffffffffffffffffff1673ffffffffffffffffffffffffffffffffffffffff1673ffffffffffffffffffffffffffffffffffffffff1681526020016003820160149054906101000a900460ff166002811115610902576109016113b7565b5b6002811115610914576109136113b7565b5b815250509050919050565b600060026000838152602001908152602001600020549050919050565b60008054906101000a900460ff161561095457600080fd5b61095c6106a9565b73ffffffffffffffffffffffffffffffffffffffff163373ffffffffffffffffffffffffffffffffffffffff16146109c9576040517f08c379a00000000000000000000000000000000000000000000000000000000081526004016109c090611653565b60405180910390fd5b6109d2816110b2565b610a11576040517f08c379a0000000000000000000000000000000000000000000000000000000008152600401610a0890611771565b60405180910390fd5b600060016000838152602001908152602001600020905060006002811115610a3c57610a3b6113b7565b5b8160030160149054906101000a900460ff166002811115610a6057610a5f6113b7565b5b14610aa0576040517f08c379a0000000000000000000000000000000000000000000000000000000008152600401610a97906117dd565b60405180910390fd5b60008160030160009054906101000a900473ffffffffffffffffffffffffffffffffffffffff1673ffffffffffffffffffffffffffffffffffffffff168260010154604051610aee906116a4565b60006040518083038185875af1925050503d8060008114610b2b576040519150601f19603f3d011682016040523d82523d6000602084013e610b30565b606091505b5050905080610b74576040517f08c379a0000000000000000000000000000000000000000000000000000000008152600401610b6b90611921565b60405180910390fd5b60028260030160146101000a81548160ff02191690836002811115610b9c57610b9b6113b7565b5b021790555060008260010181905550505050565b6000600354905090565b60008054906101000a900460ff16610bd157600080fd5b610bd96106a9565b73ffffffffffffffffffffffffffffffffffffffff163373ffffffffffffffffffffffffffffffffffffffff1614610c46576040517f08c379a0000000000000000000000000000000000000000000000000000000008152600401610c3d90611653565b60405180910390fd5b600460009054906101000a900473ffffffffffffffffffffffffffffffffffffffff1673ffffffffffffffffffffffffffffffffffffffff16ff5b610c896106a9565b73ffffffffffffffffffffffffffffffffffffffff163373ffffffffffffffffffffffffffffffffffffffff1614610cf6576040517f08c379a0000000000000000000000000000000000000000000000000000000008152600401610ced90611653565b60405180910390fd5b60008060006101000a81548160ff021916908315150217905550565b60008054906101000a900460ff1615610d2a57600080fd5b60008233604051602001610d3f9291906119aa565b604051602081830303815290604052805190602001209050610d6081611121565b15610da0576040517f08c379a0000000000000000000000000000000000000000000000000000000008152600401610d9790611a22565b60405180910390fd5b600060036000815480929190610db590611a71565b9190505590508160026000838152602001908152602001600020819055506040518060a001604052808281526020013481526020018481526020013373ffffffffffffffffffffffffffffffffffffffff16815260200160006002811115610e2057610e1f6113b7565b5b8152506001600084815260200190815260200160002060008201518160000155602082015181600101556040820151816002015560608201518160030160006101000a81548173ffffffffffffffffffffffffffffffffffffffff021916908373ffffffffffffffffffffffffffffffffffffffff16021790555060808201518160030160146101000a81548160ff02191690836002811115610ec657610ec56113b7565b5b021790555090505050505050565b60008054906101000a900460ff16610eeb57600080fd5b610ef36106a9565b73ffffffffffffffffffffffffffffffffffffffff163373ffffffffffffffffffffffffffffffffffffffff1614610f60576040517f08c379a0000000000000000000000000000000000000000000000000000000008152600401610f5790611653565b60405180910390fd5b6000600460009054906101000a900473ffffffffffffffffffffffffffffffffffffffff1673ffffffffffffffffffffffffffffffffffffffff1647604051610fa8906116a4565b60006040518083038185875af1925050503d8060008114610fe5576040519150601f19603f3d011682016040523d82523d6000602084013e610fea565b606091505b505090508061102e576040517f08c379a000000000000000000000000000000000000000000000000000000000815260040161102590611705565b60405180910390fd5b50565b6110396106a9565b73ffffffffffffffffffffffffffffffffffffffff163373ffffffffffffffffffffffffffffffffffffffff16146110a6576040517f08c379a000000000000000000000000000000000000000000000000000000000815260040161109d90611653565b60405180910390fd5b6110af8161118f565b50565b60008073ffffffffffffffffffffffffffffffffffffffff166001600084815260200190815260200160002060030160009054906101000a900473ffffffffffffffffffffffffffffffffffffffff1673ffffffffffffffffffffffffffffffffffffffff1614159050919050565b60003373ffffffffffffffffffffffffffffffffffffffff166001600084815260200190815260200160002060030160009054906101000a900473ffffffffffffffffffffffffffffffffffffffff1673ffffffffffffffffffffffffffffffffffffffff16149050919050565b80600460006101000a81548173ffffffffffffffffffffffffffffffffffffffff021916908373ffffffffffffffffffffffffffffffffffffffff16021790555050565b6040518060a00160405280600081526020016000815260200160008019168152602001600073ffffffffffffffffffffffffffffffffffffffff16815260200160006002811115611227576112266113b7565b5b81525090565b600080fd5b6000819050919050565b61124581611232565b811461125057600080fd5b50565b6000813590506112628161123c565b92915050565b60006020828403121561127e5761127d61122d565b5b600061128c84828501611253565b91505092915050565b6000819050919050565b6112a881611295565b81146112b357600080fd5b50565b6000813590506112c58161129f565b92915050565b6000602082840312156112e1576112e061122d565b5b60006112ef848285016112b6565b91505092915050565b60008115159050919050565b61130d816112f8565b82525050565b60006020820190506113286000830184611304565b92915050565b600073ffffffffffffffffffffffffffffffffffffffff82169050919050565b60006113598261132e565b9050919050565b6113698161134e565b82525050565b60006020820190506113846000830184611360565b92915050565b61139381611232565b82525050565b6113a281611295565b82525050565b6113b18161134e565b82525050565b7f4e487b7100000000000000000000000000000000000000000000000000000000600052602160045260246000fd5b600381106113f7576113f66113b7565b5b50565b6000819050611408826113e6565b919050565b6000611418826113fa565b9050919050565b6114288161140d565b82525050565b60a082016000820151611444600085018261138a565b506020820151611457602085018261138a565b50604082015161146a6040850182611399565b50606082015161147d60608501826113a8565b506080820151611490608085018261141f565b50505050565b600060a0820190506114ab600083018461142e565b92915050565b6114ba81611295565b82525050565b60006020820190506114d560008301846114b1565b92915050565b6114e481611232565b82525050565b60006020820190506114ff60008301846114db565b92915050565b60007fffffffffffffffffffffffffffffffff0000000000000000000000000000000082169050919050565b61153a81611505565b811461154557600080fd5b50565b60008135905061155781611531565b92915050565b600080604083850312156115745761157361122d565b5b600061158285828601611548565b9250506020611593858286016112b6565b9150509250929050565b6115a68161134e565b81146115b157600080fd5b50565b6000813590506115c38161159d565b92915050565b6000602082840312156115df576115de61122d565b5b60006115ed848285016115b4565b91505092915050565b600082825260208201905092915050565b7f6f6e6c79206f776e65722068617320616e206163636573737321000000000000600082015250565b600061163d601a836115f6565b915061164882611607565b602082019050919050565b6000602082019050818103600083015261166c81611630565b9050919050565b600081905092915050565b50565b600061168e600083611673565b91506116998261167e565b600082019050919050565b60006116af82611681565b9150819050919050565b7f5472616e73666572206661696c65642e00000000000000000000000000000000600082015250565b60006116ef6010836115f6565b91506116fa826116b9565b602082019050919050565b6000602082019050818103600083015261171e816116e2565b9050919050565b7f436f75727365206973206e6f7420437265617465642100000000000000000000600082015250565b600061175b6016836115f6565b915061176682611725565b602082019050919050565b6000602082019050818103600083015261178a8161174e565b9050919050565b7f436f757273652068617320496e76616c69642053746174650000000000000000600082015250565b60006117c76018836115f6565b91506117d282611791565b602082019050919050565b600060208201905081810360008301526117f6816117ba565b9050919050565b7f436f75727365204973206e6f7420437265617465642059657421000000000000600082015250565b6000611833601a836115f6565b915061183e826117fd565b602082019050919050565b6000602082019050818103600083015261186281611826565b9050919050565b7f53656e646572206973206e6f7420636f75727365204f776e6572000000000000600082015250565b600061189f601a836115f6565b91506118aa82611869565b602082019050919050565b600060208201905081810360008301526118ce81611892565b9050919050565b7f5472616e73666572206661696c65642100000000000000000000000000000000600082015250565b600061190b6010836115f6565b9150611916826118d5565b602082019050919050565b6000602082019050818103600083015261193a816118fe565b9050919050565b6000819050919050565b61195c61195782611505565b611941565b82525050565b60008160601b9050919050565b600061197a82611962565b9050919050565b600061198c8261196f565b9050919050565b6119a461199f8261134e565b611981565b82525050565b60006119b6828561194b565b6010820191506119c68284611993565b6014820191508190509392505050565b7f436f757273652068617320616c72656164792061204f776e6572210000000000600082015250565b6000611a0c601b836115f6565b9150611a17826119d6565b602082019050919050565b60006020820190508181036000830152611a3b816119ff565b9050919050565b7f4e487b7100000000000000000000000000000000000000000000000000000000600052601160045260246000fd5b6000611a7c82611232565b91507fffffffffffffffffffffffffffffffffffffffffffffffffffffffffffffffff8203611aae57611aad611a42565b5b60018201905091905056fea2646970667358221220e33db4117837e6a1e53740ab57817c57066f271541f5956a90cf3c23b2f92e1464736f6c634300080f0033",
  "immutableReferences": {},
  "source": "// SPDX-License-Identifier: GPL-3.0\r\npragma solidity >=0.7.0 <0.9.0;\r\n\r\ncontract CourseMarketPlace {\r\n    enum State {\r\n        Purchased,\r\n        Activated,\r\n        Deactivated\r\n    }\r\n\r\n    struct Course {\r\n        uint id;\r\n        uint price;\r\n        bytes32 proof;\r\n        address owner;\r\n        State state;\r\n    }\r\n\r\n    bool public isStopped = false;\r\n\r\n    // mapping of courseHash to Course data\r\n    mapping(bytes32 => Course) private ownedCourses;\r\n\r\n    // mapping of courseID to courseHash\r\n    mapping(uint => bytes32) private ownedCourseHash;\r\n\r\n    //number of all courses + id of the course\r\n    uint private totalOwnedCourses;\r\n\r\n    address payable private owner;\r\n\r\n    constructor () {\r\n        setContractOwner(msg.sender);\r\n    }\r\n\r\n    modifier onlyOwner() {\r\n        if (msg.sender != getContractOwner()) {\r\n            revert(\"only owner has an accesss!\");\r\n        }\r\n        _;\r\n    }\r\n\r\n    modifier onlyWhenNotStopped {\r\n        require(!isStopped);\r\n        _;\r\n    }\r\n\r\n    modifier onlyWhenStopped {\r\n        require(isStopped);\r\n        _;\r\n    }\r\n\r\n    receive() external payable {}\r\n\r\n    function emergencyWithdraw ()\r\n        external\r\n        onlyWhenStopped\r\n        onlyOwner\r\n    {\r\n        (bool success,) = owner.call{value : address(this).balance}(\"\");\r\n        require(success,\"Transfer failed.\");\r\n    }\r\n\r\n    function selfDestruct ()\r\n        external\r\n        onlyWhenStopped\r\n        onlyOwner\r\n    {\r\n        selfdestruct(owner);\r\n    }\r\n\r\n    function withdraw (uint amount)\r\n        external\r\n        onlyOwner\r\n    {\r\n        (bool success,) = owner.call{value : amount}(\"\");\r\n        require(success,\"Transfer failed.\");\r\n    }\r\n\r\n    function stopContract() \r\n        external\r\n        onlyOwner\r\n    {\r\n        isStopped = true;\r\n    }\r\n\r\n    function resumeContract() \r\n        external\r\n        onlyOwner\r\n    {\r\n        isStopped = false;\r\n    }\r\n\r\n    function purchaseCourse (\r\n        bytes16 courseId,\r\n        bytes32 proof\r\n    )\r\n        external\r\n        payable\r\n        onlyWhenNotStopped\r\n    {\r\n        bytes32 courseHash = keccak256(abi.encodePacked(courseId, msg.sender));\r\n\r\n        if (hasCourseOwnership(courseHash)){\r\n            revert(\"Course has already a Owner!\");\r\n        }\r\n\r\n        uint id = totalOwnedCourses++;\r\n        ownedCourseHash[id] = courseHash;\r\n        ownedCourses[courseHash] = Course({\r\n            id : id,\r\n            price : msg.value,\r\n            proof : proof,\r\n            state : State.Purchased,\r\n            owner : msg.sender\r\n        });\r\n    }\r\n\r\n    function repurchaseCourse(bytes32 courseHash)\r\n        external\r\n        payable\r\n        onlyWhenNotStopped\r\n    {\r\n        if (!isCourseCreated(courseHash)) {\r\n            revert(\"Course Is not Created Yet!\");\r\n        }\r\n\r\n        if (!hasCourseOwnership(courseHash)) {\r\n            revert(\"Sender is not course Owner\");\r\n        }\r\n\r\n        Course storage course = ownedCourses[courseHash];\r\n\r\n        if (course.state != State.Deactivated) {\r\n            revert(\"Course has Invalid State\");\r\n        }\r\n\r\n        course.state = State.Purchased;\r\n        course.price = msg.value;\r\n\r\n    }\r\n\r\n    function activateCourse(\r\n        bytes32 courseHash\r\n    )\r\n        external\r\n        onlyWhenNotStopped\r\n        onlyOwner\r\n    {\r\n        if (!isCourseCreated(courseHash)) {\r\n            revert(\"Course is not Created!\");\r\n        }\r\n\r\n        Course storage course = ownedCourses[courseHash];\r\n\r\n        if ( course.state != State.Purchased ){\r\n            revert(\"Course has Invalid State\");\r\n        }\r\n        course.state = State.Activated;\r\n    }\r\n\r\n        function deactivateCourse(\r\n        bytes32 courseHash\r\n    )\r\n        external\r\n        onlyWhenNotStopped\r\n        onlyOwner\r\n    {\r\n        if (!isCourseCreated(courseHash)) {\r\n            revert(\"Course is not Created!\");\r\n        }\r\n\r\n        Course storage course = ownedCourses[courseHash];\r\n\r\n        if ( course.state != State.Purchased ){\r\n            revert(\"Course has Invalid State\");\r\n        }\r\n\r\n        (bool success,) = course.owner.call{ value : course.price}(\"\");\r\n        require(success, \"Transfer failed!\");\r\n\r\n        course.state = State.Deactivated;\r\n        course.price = 0;\r\n    }\r\n\r\n    function transferOwnership (address newOwner)\r\n        external\r\n        onlyOwner\r\n    {\r\n        setContractOwner(newOwner);\r\n    }\r\n\r\n    function getCourseCount()\r\n        external\r\n        view\r\n        returns (uint)\r\n        {\r\n            return totalOwnedCourses;\r\n        }\r\n\r\n    function getCourseHashAtIndex(uint index) \r\n        external\r\n        view \r\n        returns (bytes32)\r\n        {\r\n            return ownedCourseHash[index];\r\n        }\r\n\r\n    function getCourseByHash(bytes32 courseHash)\r\n        external\r\n        view\r\n        returns (Course memory)\r\n        {\r\n            return ownedCourses[courseHash];\r\n        }\r\n\r\n    function getContractOwner()\r\n        public\r\n        view\r\n        returns (address)\r\n        {\r\n            return owner;\r\n        }\r\n\r\n    function setContractOwner(address newOwner) \r\n        private \r\n        {\r\n            owner = payable(newOwner);\r\n        }\r\n\r\n    function isCourseCreated(bytes32 courseHash)\r\n        private\r\n        view\r\n        returns (bool)\r\n    {\r\n        return ownedCourses[courseHash].owner != 0x0000000000000000000000000000000000000000;\r\n    }\r\n    \r\n    function hasCourseOwnership (bytes32 courseHash)\r\n        private\r\n        view\r\n        returns (bool)\r\n        {\r\n            return ownedCourses[courseHash].owner == msg.sender;\r\n        }\r\n}",
  "sourcePath": "D:\\zaheer Data\\blockchainprojects\\marketPlace\\marketplace-eth\\contracts\\CourseMarketplace.sol",
  "compiler": {
    "name": "solc",
    "version": "0.8.15+commit.e14f2714.Emscripten.clang"
  },
  "schemaVersion": "3.4.8",
  "updatedAt": "2022-07-28T02:16:18.006Z",
  "networkType": "ethereum",
  "devdoc": {
    "kind": "dev",
    "methods": {},
    "version": 1
  },
  "userdoc": {
    "kind": "user",
    "methods": {},
    "version": 1
  }
}