{
  "contractName": "CourseMarketPlace",
  "abi": [
    {
      "inputs": [],
      "stateMutability": "nonpayable",
      "type": "constructor"
    },
    {
      "inputs": [
        {
          "internalType": "bytes16",
          "name": "courseId",
          "type": "bytes16"
        },
        {
          "internalType": "bytes32",
          "name": "proof",
          "type": "bytes32"
        }
      ],
      "name": "purchaseCourse",
      "outputs": [],
      "stateMutability": "payable",
      "type": "function",
      "payable": true
    },
    {
      "inputs": [
        {
          "internalType": "bytes32",
          "name": "courseHash",
          "type": "bytes32"
        }
      ],
      "name": "activateCourse",
      "outputs": [],
      "stateMutability": "nonpayable",
      "type": "function"
    },
    {
      "inputs": [
        {
          "internalType": "address",
          "name": "newOwner",
          "type": "address"
        }
      ],
      "name": "transferOwnership",
      "outputs": [],
      "stateMutability": "nonpayable",
      "type": "function"
    },
    {
      "inputs": [],
      "name": "getCourseCount",
      "outputs": [
        {
          "internalType": "uint256",
          "name": "",
          "type": "uint256"
        }
      ],
      "stateMutability": "view",
      "type": "function",
      "constant": true
    },
    {
      "inputs": [
        {
          "internalType": "uint256",
          "name": "index",
          "type": "uint256"
        }
      ],
      "name": "getCourseHashAtIndex",
      "outputs": [
        {
          "internalType": "bytes32",
          "name": "",
          "type": "bytes32"
        }
      ],
      "stateMutability": "view",
      "type": "function",
      "constant": true
    },
    {
      "inputs": [
        {
          "internalType": "bytes32",
          "name": "courseHash",
          "type": "bytes32"
        }
      ],
      "name": "getCourseByHash",
      "outputs": [
        {
          "components": [
            {
              "internalType": "uint256",
              "name": "id",
              "type": "uint256"
            },
            {
              "internalType": "uint256",
              "name": "price",
              "type": "uint256"
            },
            {
              "internalType": "bytes32",
              "name": "proof",
              "type": "bytes32"
            },
            {
              "internalType": "address",
              "name": "owner",
              "type": "address"
            },
            {
              "internalType": "enum CourseMarketPlace.State",
              "name": "state",
              "type": "uint8"
            }
          ],
          "internalType": "struct CourseMarketPlace.Course",
          "name": "",
          "type": "tuple"
        }
      ],
      "stateMutability": "view",
      "type": "function",
      "constant": true
    },
    {
      "inputs": [],
      "name": "getContractOwner",
      "outputs": [
        {
          "internalType": "address",
          "name": "",
          "type": "address"
        }
      ],
      "stateMutability": "view",
      "type": "function",
      "constant": true
    }
  ],
  "bytecode": "0x608060405234801561001057600080fd5b506100203361002560201b60201c565b610069565b80600360006101000a81548173ffffffffffffffffffffffffffffffffffffffff021916908373ffffffffffffffffffffffffffffffffffffffff16021790555050565b610e94806100786000396000f3fe6080604052600436106100705760003560e01c80636d11290b1161004e5780636d11290b1461010657806396cfda0614610143578063d76821cb1461016e578063f2fde38b1461018a57610070565b80633926257214610075578063442890d51461009e57806362e4e6ac146100c9575b600080fd5b34801561008157600080fd5b5061009c60048036038101906100979190610839565b6101b3565b005b3480156100aa57600080fd5b506100b361032f565b6040516100c091906108a7565b60405180910390f35b3480156100d557600080fd5b506100f060048036038101906100eb9190610839565b610359565b6040516100fd91906109d8565b60405180910390f35b34801561011257600080fd5b5061012d60048036038101906101289190610a1f565b610434565b60405161013a9190610a5b565b60405180910390f35b34801561014f57600080fd5b50610158610451565b6040516101659190610a85565b60405180910390f35b61018860048036038101906101839190610af8565b61045b565b005b34801561019657600080fd5b506101b160048036038101906101ac9190610b64565b610604565b005b6101bb61032f565b73ffffffffffffffffffffffffffffffffffffffff163373ffffffffffffffffffffffffffffffffffffffff1614610228576040517f08c379a000000000000000000000000000000000000000000000000000000000815260040161021f90610bee565b60405180910390fd5b61023181610685565b610270576040517f08c379a000000000000000000000000000000000000000000000000000000000815260040161026790610c5a565b60405180910390fd5b600080600083815260200190815260200160002090506000600281111561029a576102996108f9565b5b8160030160149054906101000a900460ff1660028111156102be576102bd6108f9565b5b146102fe576040517f08c379a00000000000000000000000000000000000000000000000000000000081526004016102f590610cc6565b60405180910390fd5b60018160030160146101000a81548160ff02191690836002811115610326576103256108f9565b5b02179055505050565b6000600360009054906101000a900473ffffffffffffffffffffffffffffffffffffffff16905090565b6103616107a4565b6000808381526020019081526020016000206040518060a00160405290816000820154815260200160018201548152602001600282015481526020016003820160009054906101000a900473ffffffffffffffffffffffffffffffffffffffff1673ffffffffffffffffffffffffffffffffffffffff1673ffffffffffffffffffffffffffffffffffffffff1681526020016003820160149054906101000a900460ff166002811115610417576104166108f9565b5b6002811115610429576104286108f9565b5b815250509050919050565b600060016000838152602001908152602001600020549050919050565b6000600254905090565b60008233604051602001610470929190610d4f565b604051602081830303815290604052805190602001209050610491816106f3565b156104d1576040517f08c379a00000000000000000000000000000000000000000000000000000000081526004016104c890610dc7565b60405180910390fd5b6000600260008154809291906104e690610e16565b9190505590508160016000838152602001908152602001600020819055506040518060a001604052808281526020013481526020018481526020013373ffffffffffffffffffffffffffffffffffffffff16815260200160006002811115610551576105506108f9565b5b81525060008084815260200190815260200160002060008201518160000155602082015181600101556040820151816002015560608201518160030160006101000a81548173ffffffffffffffffffffffffffffffffffffffff021916908373ffffffffffffffffffffffffffffffffffffffff16021790555060808201518160030160146101000a81548160ff021916908360028111156105f6576105f56108f9565b5b021790555090505050505050565b61060c61032f565b73ffffffffffffffffffffffffffffffffffffffff163373ffffffffffffffffffffffffffffffffffffffff1614610679576040517f08c379a000000000000000000000000000000000000000000000000000000000815260040161067090610bee565b60405180910390fd5b61068281610760565b50565b60008073ffffffffffffffffffffffffffffffffffffffff1660008084815260200190815260200160002060030160009054906101000a900473ffffffffffffffffffffffffffffffffffffffff1673ffffffffffffffffffffffffffffffffffffffff1614159050919050565b60003373ffffffffffffffffffffffffffffffffffffffff1660008084815260200190815260200160002060030160009054906101000a900473ffffffffffffffffffffffffffffffffffffffff1673ffffffffffffffffffffffffffffffffffffffff16149050919050565b80600360006101000a81548173ffffffffffffffffffffffffffffffffffffffff021916908373ffffffffffffffffffffffffffffffffffffffff16021790555050565b6040518060a00160405280600081526020016000815260200160008019168152602001600073ffffffffffffffffffffffffffffffffffffffff168152602001600060028111156107f8576107f76108f9565b5b81525090565b600080fd5b6000819050919050565b61081681610803565b811461082157600080fd5b50565b6000813590506108338161080d565b92915050565b60006020828403121561084f5761084e6107fe565b5b600061085d84828501610824565b91505092915050565b600073ffffffffffffffffffffffffffffffffffffffff82169050919050565b600061089182610866565b9050919050565b6108a181610886565b82525050565b60006020820190506108bc6000830184610898565b92915050565b6000819050919050565b6108d5816108c2565b82525050565b6108e481610803565b82525050565b6108f381610886565b82525050565b7f4e487b7100000000000000000000000000000000000000000000000000000000600052602160045260246000fd5b60038110610939576109386108f9565b5b50565b600081905061094a82610928565b919050565b600061095a8261093c565b9050919050565b61096a8161094f565b82525050565b60a08201600082015161098660008501826108cc565b50602082015161099960208501826108cc565b5060408201516109ac60408501826108db565b5060608201516109bf60608501826108ea565b5060808201516109d26080850182610961565b50505050565b600060a0820190506109ed6000830184610970565b92915050565b6109fc816108c2565b8114610a0757600080fd5b50565b600081359050610a19816109f3565b92915050565b600060208284031215610a3557610a346107fe565b5b6000610a4384828501610a0a565b91505092915050565b610a5581610803565b82525050565b6000602082019050610a706000830184610a4c565b92915050565b610a7f816108c2565b82525050565b6000602082019050610a9a6000830184610a76565b92915050565b60007fffffffffffffffffffffffffffffffff0000000000000000000000000000000082169050919050565b610ad581610aa0565b8114610ae057600080fd5b50565b600081359050610af281610acc565b92915050565b60008060408385031215610b0f57610b0e6107fe565b5b6000610b1d85828601610ae3565b9250506020610b2e85828601610824565b9150509250929050565b610b4181610886565b8114610b4c57600080fd5b50565b600081359050610b5e81610b38565b92915050565b600060208284031215610b7a57610b796107fe565b5b6000610b8884828501610b4f565b91505092915050565b600082825260208201905092915050565b7f6f6e6c79206f776e65722068617320616e206163636573737321000000000000600082015250565b6000610bd8601a83610b91565b9150610be382610ba2565b602082019050919050565b60006020820190508181036000830152610c0781610bcb565b9050919050565b7f436f75727365206973206e6f7420437265617465642100000000000000000000600082015250565b6000610c44601683610b91565b9150610c4f82610c0e565b602082019050919050565b60006020820190508181036000830152610c7381610c37565b9050919050565b7f436f757273652068617320496e76616c69642053746174650000000000000000600082015250565b6000610cb0601883610b91565b9150610cbb82610c7a565b602082019050919050565b60006020820190508181036000830152610cdf81610ca3565b9050919050565b6000819050919050565b610d01610cfc82610aa0565b610ce6565b82525050565b60008160601b9050919050565b6000610d1f82610d07565b9050919050565b6000610d3182610d14565b9050919050565b610d49610d4482610886565b610d26565b82525050565b6000610d5b8285610cf0565b601082019150610d6b8284610d38565b6014820191508190509392505050565b7f436f757273652068617320616c72656164792061204f776e6572210000000000600082015250565b6000610db1601b83610b91565b9150610dbc82610d7b565b602082019050919050565b60006020820190508181036000830152610de081610da4565b9050919050565b7f4e487b7100000000000000000000000000000000000000000000000000000000600052601160045260246000fd5b6000610e21826108c2565b91507fffffffffffffffffffffffffffffffffffffffffffffffffffffffffffffffff8203610e5357610e52610de7565b5b60018201905091905056fea26469706673582212208a19d0619fa258dbe08e02a4440b989dd99a4320f617f18ec3dfb9c4aecfeb9c64736f6c634300080f0033",
  "immutableReferences": {},
  "source": "// SPDX-License-Identifier: GPL-3.0\r\npragma solidity >=0.7.0 <0.9.0;\r\n\r\ncontract CourseMarketPlace {\r\n    enum State {\r\n        Purchased,\r\n        Activated,\r\n        Deactivated\r\n    }\r\n\r\n    struct Course {\r\n        uint id;\r\n        uint price;\r\n        bytes32 proof;\r\n        address owner;\r\n        State state;\r\n    }\r\n\r\n    // mapping of courseHash to Course data\r\n    mapping(bytes32 => Course) private ownedCourses;\r\n\r\n    // mapping of courseID to courseHash\r\n    mapping(uint => bytes32) private ownedCourseHash;\r\n\r\n    //number of all courses + id of the course\r\n    uint private totalOwnedCourses;\r\n\r\n    address payable private owner;\r\n\r\n    constructor () {\r\n        setContractOwner(msg.sender);\r\n    }\r\n\r\n    modifier onlyOwner() {\r\n        if (msg.sender != getContractOwner()) {\r\n            revert(\"only owner has an accesss!\");\r\n        }\r\n        _;\r\n    }\r\n\r\n    function purchaseCourse (\r\n        bytes16 courseId,\r\n        bytes32 proof\r\n    )\r\n        external\r\n        payable\r\n    {\r\n        bytes32 courseHash = keccak256(abi.encodePacked(courseId, msg.sender));\r\n\r\n        if (hasCourseOwnership(courseHash)){\r\n            revert(\"Course has already a Owner!\");\r\n        }\r\n\r\n        uint id = totalOwnedCourses++;\r\n        ownedCourseHash[id] = courseHash;\r\n        ownedCourses[courseHash] = Course({\r\n            id : id,\r\n            price : msg.value,\r\n            proof : proof,\r\n            state : State.Purchased,\r\n            owner : msg.sender\r\n        });\r\n    }\r\n\r\n    function activateCourse(\r\n        bytes32 courseHash\r\n    )\r\n        external\r\n        onlyOwner\r\n    {\r\n        if (!isCourseCreated(courseHash)) {\r\n            revert(\"Course is not Created!\");\r\n        }\r\n\r\n        Course storage course = ownedCourses[courseHash];\r\n\r\n        if ( course.state != State.Purchased ){\r\n            revert(\"Course has Invalid State\");\r\n        }\r\n        course.state = State.Activated;\r\n    }\r\n\r\n    function transferOwnership (address newOwner)\r\n        external\r\n        onlyOwner\r\n    {\r\n        setContractOwner(newOwner);\r\n    }\r\n\r\n    function getCourseCount()\r\n        external\r\n        view\r\n        returns (uint)\r\n        {\r\n            return totalOwnedCourses;\r\n        }\r\n\r\n    function getCourseHashAtIndex(uint index) \r\n        external\r\n        view \r\n        returns (bytes32)\r\n        {\r\n            return ownedCourseHash[index];\r\n        }\r\n\r\n    function getCourseByHash(bytes32 courseHash)\r\n        external\r\n        view\r\n        returns (Course memory)\r\n        {\r\n            return ownedCourses[courseHash];\r\n        }\r\n\r\n    function getContractOwner()\r\n        public\r\n        view\r\n        returns (address)\r\n        {\r\n            return owner;\r\n        }\r\n\r\n    function setContractOwner(address newOwner) \r\n        private \r\n        {\r\n            owner = payable(newOwner);\r\n        }\r\n\r\n    function isCourseCreated(bytes32 courseHash)\r\n        private\r\n        view\r\n        returns (bool)\r\n    {\r\n        return ownedCourses[courseHash].owner != 0x0000000000000000000000000000000000000000;\r\n    }\r\n    \r\n    function hasCourseOwnership (bytes32 courseHash)\r\n        private\r\n        view\r\n        returns (bool)\r\n        {\r\n            return ownedCourses[courseHash].owner == msg.sender;\r\n        }\r\n}",
  "sourcePath": "D:\\zaheer Data\\blockchainprojects\\marketPlace\\marketplace-eth\\contracts\\CourseMarketplace.sol",
  "compiler": {
    "name": "solc",
    "version": "0.8.15+commit.e14f2714.Emscripten.clang"
  },
  "schemaVersion": "3.4.8",
  "updatedAt": "2022-07-25T14:30:43.930Z",
  "networkType": "ethereum",
  "devdoc": {
    "kind": "dev",
    "methods": {},
    "version": 1
  },
  "userdoc": {
    "kind": "user",
    "methods": {},
    "version": 1
  }
}